:100000000C942A000C9447000C9447000C94470071
:100010000C9447000C9447000C9447000C94470044
:100020000C9447000C9447000C9447000C94470034
:100030000C9447000C9447000C9447000C94470024
:100040000C9447000C9447000C9447000C94470014
:100050000C94470011241FBECFE5D8E0DEBFCDBF12
:1000600012E0A0E6B0E0E4E3FFE002C005900D92EC
:10007000AE30B107D9F712E0AEE0B2E001C01D9298
:10008000AB31B107E1F70E9453070C9498070C9429
:1000900000000F931F9300EF1FEF40E45CE928EC92
:1000A00030E0BFEEAFED7FEB6FE704BB15BB85B370
:1000B0008F7085BB000083B38F708F30C1F7CA018A
:1000C0000197F1F783B38F708F30C9F380E991E026
:1000D000F9013197F1F70197D9F783B38F708F301A
:1000E00071F3B5BB000083B38F708F3029F080931C
:1000F00014021092190220C0A5BB000083B38F70B8
:100100008F3021F08093140281E014C075BB000091
:1001100083B38F708F3021F08093140282E00AC085
:1001200065BB000083B38F708F3009F4BECF80931E
:10013000140283E080931902809114028E3051F4EE
:10014000E0911902F0E0EE0FFF1FEE0FFF1FE351E9
:10015000FE4F18C08D3059F4E0911902F0E0EE0F17
:10016000FF1FEE0FFF1FE351FE4F818115C0E0918D
:1001700019028B3049F4F0E0EE0FFF1FEE0FFF1F66
:10018000E151FE4F808108C0F0E0EE0FFF1FEE0F3F
:10019000FF1FE351FE4F83811F910F91089598B384
:1001A000282F207F9F70292B28BBC098C19A22E05E
:1001B000922F9A95F1F7C198E8ECF0E03197F1F7BA
:1001C00098B38295807F9F70982B98BBC19A2A958F
:1001D000F1F7C19880EA9FE00197F1F7089598B38D
:1001E000282F207F9F70292B28BBC09AC19A22E01C
:1001F000922F9A95F1F7C198E8ECF0E03197F1F77A
:1002000098B38295807F9F70982B98BBC19A2A954E
:10021000F1F7C19880EA9FE00197F1F708958FEF19
:1002200087BB80E49CE90197F1F782E00E94CF0050
:1002300088E20E94CF008CE00E94CF0081E00E9403
:10024000CF0082E80E94CF000895CF93DF93EC01A6
:1002500002C00E94EF0089918823D9F7DF91CF91E6
:100260000895CF93DF93EA01813021F46F70862FD8
:10027000806805C0823029F46F70862F806C0E94E0
:10028000CF00CE010E942501DF91CF91089581E03A
:100290000E94CF0080E797E10197F1F780E80E9484
:1002A000CF0008950E94490080931A02089581E0CA
:1002B00060E040E650E00E9431010E9452018091CE
:1002C0001A02282F30E090E02037390741F1609181
:1002D0000E0270910F026430710508F58134F9F057
:1002E0008234E9F08434D9F08A32C9F08332B9F02B
:1002F0008334A9F082E041E750E00E94310180910F
:100300000E0290910F02FC01E05FFD4F20911A0256
:100310002083019690930F0280930E020895235735
:100320003040D9F08334C9F460910E0270910F020D
:100330006150704070930F0260930E0282E043E7B9
:1003400050E00E94310180910E0290910F020B97B4
:1003500020F010920F0210920E020895CF93DF93B7
:100360000E940F0102C00E94570180910E029091DD
:100370000F020497C0F3C8ECD0E00E945201209114
:100380001A02822F90E083579040B9F390911002A7
:100390008091FD01981769F5909111028091FE01FD
:1003A000981739F5909112028091FF01981709F57D
:1003B00090911302809100029817D9F42134E9F644
:1003C0000E940F0181E060E045E750E00E943101AA
:1003D0008FEF87BB81E088BB80E593EC28EC30E0B1
:1003E000F9013197F1F70197D9F718BADF91CF9159
:1003F0000895213409F0C1CF0E940F0181E060E02F
:1004000042E850E00E94310182E060E042E950E0C1
:100410000E94310180E197E2FE013197F1F70197E7
:10042000D9F70E940F0181E060E042E950E00E94AC
:10043000310110920F0210920E020E94AE019DCF68
:100440000E940F0181E060E044EA50E00E94310127
:1004500082E060E041EB50E00E94310180E197E2F0
:1004600028EC30E0F9013197F1F70197D9F70E94B4
:100470000F0181E060E04BEB50E00E9431010E94EF
:10048000520180911A02282F30E090E0203739077E
:1004900041F160910E0270910F026430710508F510
:1004A0008134F9F08234E9F08434D9F08A32C9F029
:1004B0008332B9F08334A9F082E041E750E00E9432
:1004C000310180910E0290910F02FC01E05FFD4F1F
:1004D00020911A022083019690930F0280930E02BE
:1004E000CECF2357304059F28334D9F460910E02B5
:1004F00070910F026150704070930F0260930E0272
:1005000082E043E750E00E94310180910E02909119
:100510000F020B9708F4B3CF10920F0210920E0245
:10052000AECF813409F0ABCF80910E0290910F02D3
:10053000049709F0A4CF08950E940F0181E060E0C4
:1005400048EC50E00E94310182E060E041EB50E075
:100550000E94310180E197E228EC30E0F901319707
:10056000F1F70197D9F70E940F0181E060E04BEBB2
:1005700050E00E94310110920F0210920E020E9470
:10058000520180911A02282F30E090E0203739077D
:1005900041F160910E0270910F026430710508F50F
:1005A0008134F9F08234E9F08434D9F08A32C9F028
:1005B0008332B9F08334A9F082E041E750E00E9431
:1005C000310180910E0290910F02FC01EB5EFD4F14
:1005D00020911A022083019690930F0280930E02BD
:1005E000CECF2357304059F28334B9F460910E02D4
:1005F00070910F026150704070930F0260930E0271
:1006000082E043E750E00E94310180910E02909118
:100610000F020B9708F4B3CFAECF813409F0AFCF00
:1006200080910E0290910F02049709F0A8CF1092CA
:100630000F0210920E020E9420020895CF93DF93C2
:10064000C8ECD0E00E949C0220911A02822F90E018
:100650008357904009F464C05091100280911502B4
:100660005817D1F540911102809116024817A1F553
:100670003091120280911702381771F59091130290
:1006800080911802981741F5213409F049C0509320
:10069000FD014093FE013093FF01909300020E9400
:1006A0000F0181E060E042ED50E00E94310182E004
:1006B00060E041EE50E00E9431018FEF87BB81E0A6
:1006C00088BB80E395E728EC30E0F9013197F1F73A
:1006D0000197D9F718BA24C0213411F50E940F01EF
:1006E00081E060E047EE50E00E94310182E060E08E
:1006F00042E950E00E94310180E395E7FE01319725
:10070000F1F70197D9F70E940F0181E060E042E91B
:1007100050E00E94310110920F0210920E0292CF0F
:10072000DF91CF910895CF93DF930E940F0102C014
:100730000E94570180910E0290910F020497C0F31E
:10074000C8ECD0E00E94520180911A0290E08357D9
:10075000904089F19091100280910502981759F507
:100760009091110280910602981729F5909112023A
:10077000809107029817F9F4909113028091080272
:100780009817C9F40E940F0181E060E045E750E04E
:100790000E9431018FEF87BB81E088BB80E593EC3D
:1007A00028EC30E0F9013197F1F70197D9F718BA41
:1007B000DF91CF9108950E940F0181E060E042E84F
:1007C00050E00E94310182E060E042E950E00E9486
:1007D000310180E197E2FE013197F1F70197D9F7F6
:1007E0000E940F0181E060E042E950E00E94310187
:1007F00010920F0210920E020E949303A3CFCF9388
:10080000DF930E940F0102C00E94570180910E02E7
:1008100090910F020497C0F3C8ECD0E00E945201FF
:1008200080911A0290E08357904089F190911002D4
:1008300080910902981759F59091110280910A024E
:10084000981729F59091120280910B029817F9F4EC
:100850009091130280910C029817C9F40E940F0125
:1008600081E060E045E750E00E9431018FEF87BBF7
:1008700081E088BB80E593EC28EC30E0F90131970A
:10088000F1F70197D9F718BADF91CF9108950E9437
:100890000F0181E060E042E850E00E94310182E017
:1008A00060E042E950E00E94310180E197E2FE0100
:1008B0003197F1F70197D9F70E940F0181E060E0CD
:1008C00042E950E00E94310110920F0210920E0294
:1008D0000E94FF03A3CFCF93DF930E940F0102C0BA
:1008E0000E94570180910E0290910F020497C0F36D
:1008F000C8ECD0E00E94520180911A0290E0835728
:10090000904089F19091100280910102981759F559
:100910009091110280910202981729F5909112028C
:10092000809103029817F9F49091130280910402C8
:100930009817C9F40E940F0181E060E045E750E09C
:100940000E9431018FEF87BB81E088BB80E593EC8B
:1009500028EC30E0F9013197F1F70197D9F718BA8F
:10096000DF91CF9108950E940F0181E060E042E89D
:1009700050E00E94310182E060E042E950E00E94D4
:10098000310180E197E2FE013197F1F70197D9F744
:100990000E940F0181E060E042E950E00E943101D5
:1009A00010920F0210920E020E946B04A3CF0E94BD
:1009B0009C0280911A0290E08357904009F43DC058
:1009C00040911002809115024817B9F5309111023B
:1009D00080911602381789F5209112028091170232
:1009E000281759F59091130280911802981729F54C
:1009F0004093010230930202209303029093040279
:100A00000E940F0181E060E042ED50E00E94310160
:100A100082E060E041EE50E00E9431018FEF87BB41
:100A200081E088BB80E395E728EC30E0F90131975D
:100A3000F1F70197D9F718BA08950E940F0181E0E4
:100A400060E047EE50E00E94310182E060E042E960
:100A500050E00E94310180E395E728EC30E0F90195
:100A60003197F1F70197D9F70E940F0181E060E01B
:100A700042E950E00E94310110920F0210920E02E2
:100A80000E941E0308950E949C0280911A0290E029
:100A90008357904009F43DC04091100280911502A7
:100AA0004817B9F53091110280911602381789F56F
:100AB0002091120280911702281759F59091130284
:100AC00080911802981729F5409305023093060289
:100AD00020930702909308020E940F0181E060E0DA
:100AE00042ED50E00E94310182E060E041EE50E0D2
:100AF0000E9431018FEF87BB81E088BB80E395E7DF
:100B000028EC30E0F9013197F1F70197D9F718BADD
:100B100008950E940F0181E060E047EE50E00E94DE
:100B2000310182E060E042E950E00E94310180E35F
:100B300095E728EC30E0F9013197F1F70197D9F703
:100B40000E940F0181E060E042E950E00E94310123
:100B500010920F0210920E020E941E0308950E942E
:100B60009C0280911A0290E08357904009F43DC0A6
:100B700040911002809115024817B9F53091110289
:100B800080911602381789F5209112028091170280
:100B9000281759F59091130280911802981729F59A
:100BA0004093090230930A0220930B0290930C02A7
:100BB0000E940F0181E060E042ED50E00E943101AF
:100BC00082E060E041EE50E00E9431018FEF87BB90
:100BD00081E088BB80E395E728EC30E0F9013197AC
:100BE000F1F70197D9F718BA08950E940F0181E033
:100BF00060E047EE50E00E94310182E060E042E9AF
:100C000050E00E94310180E395E728EC30E0F901E3
:100C10003197F1F70197D9F70E940F0181E060E069
:100C200042E950E00E94310110920F0210920E0230
:100C30000E941E0308950E940F0181E060E041EFD1
:100C400050E00E94310182E060E04FEF50E00E94EE
:100C5000310180E395E728EC30E0F9013197F1F7B5
:100C60000197D9F70E940F0181E060E04EE051E06A
:100C70000E94310182E060E04CE151E00E943101CC
:100C800080E395E728EC30E0F9013197F1F701971F
:100C9000D9F70E940F0181E060E04CE251E00E9430
:100CA000310182E060E04AE351E00E94310180E3DB
:100CB00095E728EC30E0F9013197F1F70197D9F782
:100CC0000E940F0181E060E04AE451E00E9431019E
:100CD0000E94520120911A02822F90E030E080376A
:100CE0009307B1F02133A1F40E940F0181E060E08D
:100CF0004FEF50E00E94310180E395E728EC30E0AF
:100D0000F9013197F1F70197D9F70E94D7040895B7
:100D100083579040E9F22233A1F40E940F0181E051
:100D200060E040E551E00E94310180E395E728EC66
:100D300030E0F9013197F1F70197D9F70E944305A7
:100D40000895233309F0C4CF0E940F0181E060E0D1
:100D50004FE551E00E94310180E395E728EC30E057
:100D6000F9013197F1F70197D9F70E94AF0508957E
:100D70000E940F0181E060E04EE651E00E943101E7
:100D800082E060E046E751E00E94310180E395E7B0
:100D900028EC30E0F9013197F1F70197D9F70E947B
:100DA0000F0181E060E040E851E00E94310182E003
:100DB00060E048E851E00E94310180E395E728ECCB
:100DC00030E0F9013197F1F70197D9F70E940F014F
:100DD00081E060E048E951E00E94310182E060E09A
:100DE00040EA51E00E94310180E395E728EC30E0D1
:100DF000F9013197F1F70197D9F70E940F0181E0CE
:100E000060E04AE451E00E9431010E9452012091C9
:100E10001A02822F90E030E080379307B1F021333F
:100E2000A1F40E940F0181E060E04AEA51E00E94D3
:100E3000310180E395E728EC30E0F9013197F1F7D3
:100E40000197D9F70E946B04089583579040E9F207
:100E50002233A1F40E940F0181E060E043EB51E0F6
:100E60000E94310180E395E728EC30E0F9013197E9
:100E7000F1F70197D9F70E941B060895233309F073
:100E8000C4CF0E940F0181E060E04CEB51E00E9472
:100E9000310180E395E728EC30E0F9013197F1F773
:100EA0000197D9F708950E940F0181E064E045ECB5
:100EB00051E00E94310182E061E04DEC51E00E947E
:100EC000310180E395E728EC30E0F9013197F1F743
:100ED0000197D9F710920F0210920E020E940F0193
:100EE00081E060E04CED51E00E9431010E9452012E
:100EF00020911A02822F90E08357904059F32134B9
:100F000019F40E94AE01E6CF223419F40E941E03A8
:100F1000E1CF243419F40E949303DCCF233419F475
:100F20000E94B806D7CF2332A9F60E94FF03D2CF82
:040F3000F894FFCF63
:100F3400456E7465722050617373776F726420001C
:100F4400002A002000446F6F72204F70656E656444
:100F5400200057726F6E672050617373776F7264ED
:100F640020005265456E7465722050617373776F0B
:100F74007264200052652D456E746572204E65774B
:100F84000050617373776F726420004E6577205050
:100F9400617373776F726400456E746572204E6579
:100FA400770050617373776F726420526573657450
:100FB40000446F6E65200057726F6E67204E657730
:100FC400005072657373203120526573657400415B
:100FD400646D696E2050617373776F726400507230
:100FE400657373203220526573657400557365729E
:100FF40030312050617373776F726400507265737F
:1010040073203320526573657400557365723032F2
:101014002050617373776F726400456E746572005B
:1010240055736572312050617373776F7264005524
:10103400736572322050617373776F7264005072FB
:101044006573732031004F70656E20446F6F7200BA
:101054005072657373203200526573657420506159
:101064007373776F72647300507265737320330007
:101074004C6F636B20446F6F720041646D696E3115
:1010840031200041646D696E3232200041646D6923
:101094006E3333200057656C636F6D6500456D6278
:1010A400656464656420576F726C64002053686FD4
:1010B4007720596F75722043617264200031343790
:1010C4002A323538303336392341424344303030C4
:0E10D400303132333431313131323232320088
:00000001FF
