:100000000C942A000C9447000C9447000C94470071
:100010000C9447000C9447000C9447000C94470044
:100020000C9447000C9447000C9447000C94470034
:100030000C9447000C9447000C9447000C94470024
:100040000C9447000C9447000C9447000C94470014
:100050000C94470011241FBECFE5D8E0DEBFCDBF12
:1000600012E0A0E6B0E0E2E0F5E102C005900D92FA
:10007000A43CB107D9F712E0A4ECB2E001C01D9294
:10008000A93EB107E1F70E94DE090C947F0A0C94A7
:1000900000000F931F9300EF1FEF40E45CE928EC92
:1000A00030E0BFEEAFED7FEB6FE704BB15BB85B370
:1000B0008F7085BB000083B38F708F30C1F7CA018A
:1000C0000197F1F783B38F708F30C9F380E991E026
:1000D000F9013197F1F70197D9F783B38F708F301A
:1000E00071F3B5BB000083B38F708F3029F080931C
:1000F000CA021092D30220C0A5BB000083B38F7048
:100100008F3021F08093CA0281E014C075BB0000DB
:1001100083B38F708F3021F08093CA0282E00AC0CF
:1001200065BB000083B38F708F3009F4BECF80931E
:10013000CA0283E08093D3028091CA028E3051F4C8
:10014000E091D302F0E0EE0FFF1FEE0FFF1FE35B25
:10015000FD4F18C08D3059F4E091D302F0E0EE0F5E
:10016000FF1FEE0FFF1FE35BFD4F818115C0E09184
:10017000D3028B3049F4F0E0EE0FFF1FEE0FFF1FAC
:10018000E15BFD4F808108C0F0E0EE0FFF1FEE0F36
:10019000FF1FE35BFD4F83811F910F91089587B38C
:1001A0008F7087BBC19AC09881E08A95F1F721E0F2
:1001B00032E0C29A822F8A95F1F786B3807F922F20
:1001C0009A95F1F7C298932F9A95F1F7C29A922FC8
:1001D0009A95F1F796B3922F9A95F1F7C298932FCB
:1001E0009A95F1F787FDE5CFC19887B3806F87BBFC
:1001F0000895282F662311F4C09801C0C09A81E0A9
:100200008A95F1F7C29A88B3922F907F8F70982BBE
:1002100098BB92E0892F8A95F1F7C298892F8A9529
:10022000F1F7C29A88B32295207F8F70822B88BB0A
:10023000892F8A95F1F7C2989A95F1F70E94CF001D
:100240000895CF93DF93EC0110C0853251F42196CD
:1002500088818053883028F085E261E00E94F900AF
:10026000888161E00E94F90021968881882369F7DE
:10027000DF91CF910895EF92FF920F931F93DF9339
:10028000CF9300D000D00F92CDB7DEB79C018B0189
:10029000FE01319685E0DF011D928A95E9F7FE01A6
:1002A00035960DC0C9016AE070E00E94580A80834B
:1002B000C9016AE070E00E94580A9B01319721153C
:1002C000310581F7BFEF0F3F1B0779F420E030E0E5
:1002D000AE014F5F5F4F02C02F5F3F4FFA01E20F49
:1002E000F31F80818823C1F304C025E030E0201B88
:1002F000310B7E010894E11CF11CE20EF31E890112
:1003000009C0F70181917F01805D61E00E94F900E1
:100310000F5F1F4F05301105A4F30F900F900F9042
:100320000F900F90CF91DF911F910F91FF90EF9061
:100330000895843178F4623031F0633031F0613007
:1003400029F4806403C08C5E01C08C5A806860E030
:100350000E94F90008951F93CF93DF93182F80E632
:100360009AEE0197F1F787B3806F87BBBA9AB89A74
:10037000B99A88B38F7088BBC298C198C09881E041
:100380008A95F1F7C29AC59A82E0982F9A95F1F76B
:10039000C2988A95F1F70E94CF00812F8C6060E0AF
:1003A0000E94F90088E260E00E94F90080E460E0C9
:1003B0000E94F900CDE5D2E0899161E00E94F90048
:1003C00082E0C539D807C1F780E090E060E070E0D6
:1003D0000E949901DF91CF911F910895AF92BF9232
:1003E000CF92DF92EF92FF920F931F931092C5026C
:1003F0008AB188618AB980B5866880BD8CE089B988
:10040000A090AB02B090AC02C090AD02D090AE0212
:10041000E090B502F090B6020091B7021091B802D8
:10042000B091BF02A091C0027091C1026091C2025E
:100430005091E5024091E6023091E7022091E802F6
:100440005F9BFECF8CB18230D9F7E5EDF2E05F9B88
:10045000FECF8CB1819382E0EF3DF807C1F7909118
:10046000DB029A1571F48091DC028B1551F48091B6
:10047000DD028C1531F48091DE028D1511F481E0DE
:100480002FC09E1571F48091DC028F1551F480917C
:10049000DD02801731F48091DE02811711F482E0D1
:1004A0001FC09B1771F48091DC028A1751F4809170
:1004B000DD02871731F48091DE02861711F483E0A4
:1004C0000FC0951781F48091DC02841761F480914C
:1004D000DD02831741F48091DE02821721F484E06B
:1004E0008093C50205C08091DE02882309F4A8CF5D
:1004F0001F910F91FF90EF90DF90CF90BF90AF9042
:1005000008958AB188618AB980B5866880BD8CE01B
:1005100089B908955F9BFECF8CB108950E94490070
:100520008093D402089581E060E00E94F90080E0A9
:1005300060E00E94990180E690E00E9421010E9403
:100540008E028091C402843010F59091D4029134CF
:10055000F1F09234E1F09434D1F09A32C1F0933258
:10056000B1F09334A1F061E00E94990180E790E03E
:100570000E9421018091C402E82FF0E0EA53FD4F70
:100580009091D40290838F5F8093C402D8CF9091D2
:10059000D402933489F481508093C40261E00E94B4
:1005A000990182E790E00E9421018091C4028B3082
:1005B00030F21092C402C3CF913409F6843009F0AE
:1005C000BECF089581E060E00E94F90080E060E025
:1005D0000E94990184E790E00E94210180E061E09F
:1005E0000E94990181E890E00E94210180E197E258
:1005F00028EC30E0F9013197F1F70197D9F781E064
:1006000060E00E94F90080E060E00E9499018BE8C0
:1006100090E00E9421010E948E028091C4028430E9
:1006200010F59091D4029134F1F09234E1F09434C9
:10063000D1F09A32C1F09332B1F09334A1F061E07D
:100640000E94990180E790E00E9421018091C402FC
:10065000E82FF0E0EA53FD4F9091D40290838F5F32
:100660008093C402D8CF9091D402933489F48150FE
:100670008093C40261E00E94990182E790E00E94A9
:1006800021018091C4028B3030F21092C402C3CF9A
:10069000913409F6843009F0BECF089581E060E01E
:1006A0000E94F90080E060E00E94990188E990E0F2
:1006B0000E94210180E061E00E94990181E890E0C0
:1006C0000E94210180E197E228EC30E0F9013197A6
:1006D000F1F70197D9F781E060E00E94F90080E02E
:1006E00060E00E9499018BE890E00E942101109245
:1006F000C4020E948E028091C402843010F5909151
:10070000D4029134F1F09234E1F09434D1F09A3281
:10071000C1F09332B1F09334A1F061E00E949901ED
:1007200080E790E00E9421018091C402E82FF0E070
:10073000E553FD4F9091D40290838F5F8093C40264
:10074000D8CF9091D402933479F481508093C4022D
:1007500061E00E94990182E790E00E94210180916E
:10076000C4028B3030F2C3CF913419F6843009F6CD
:100770001092C4020E94E2020895CF93DF93C8EC66
:10078000D0E00E944E034091C6028091CB024817F0
:1007900009F03CC03091C7028091CC023817B1F506
:1007A0002091C8028091CD02281781F59091C9024D
:1007B0008091CE02981751F58091D402813431F5A1
:1007C000409395023093960220939702909398025B
:1007D00081E060E00E94F90080E060E00E94990101
:1007E00082EA90E00E94210180E061E00E9499018C
:1007F00081EB90E00E94210180E197E228EC30E05B
:10080000F9013197F1F70197D9F72EC08091D40201
:10081000813451F581E060E00E94F90080E060E001
:100820000E94990187EB90E00E94210180E061E045
:100830000E94990181EC90E00E94210188E99AE3ED
:10084000FE013197F1F70197D9F781E060E00E944E
:10085000F90080E060E00E94990181EC90E00E9444
:1008600021011092C4028DCFDF91CF910895CF93D3
:10087000DF9381E060E00E94F90002C00E949302D1
:100880008091C4028430D0F3C8ECD0E09091C602CD
:1008900080919D02981771F59091C70280919E02F8
:1008A000981741F59091C80280919F02981711F511
:1008B0009091C9028091A0029817E1F481E060E074
:1008C0000E94F90080E060E00E94990183ED90E0D1
:1008D0000E942101D89ADB9A80E49CE928EC30E060
:1008E000F9013197F1F70197D9F7D898DB98DF91A3
:1008F000CF91089581E060E00E94F90080E060E01F
:100900000E94990180EE90E00E94210180E061E068
:100910000E94990181EC90E00E94210180E197E220
:10092000FE013197F1F70197D9F781E060E00E946D
:10093000F90080E060E00E94990181EC90E00E9463
:1009400021011092C4020E943704A0CFCF93DF93FD
:1009500081E060E00E94F90002C00E949302809151
:10096000C4028430D0F3C8ECD0E09091C6028091EC
:10097000A102981771F59091C7028091A202981771
:1009800041F59091C8028091A302981711F59091BA
:10099000C9028091A4029817E1F481E060E00E940E
:1009A000F90080E060E00E94990183ED90E00E94F0
:1009B0002101D89ADC9A80E49CE928EC30E0F90126
:1009C0003197F1F70197D9F7D898DC98DF91CF915B
:1009D000089581E060E00E94F90080E060E00E94FC
:1009E000990180EE90E00E94210180E061E00E9488
:1009F000990181EC90E00E94210180E197E2FE01E3
:100A00003197F1F70197D9F781E060E00E94F90092
:100A100080E060E00E94990181EC90E00E94210159
:100A20001092C4020E94A604A0CFCF93DF9381E06E
:100A300060E00E94F90002C00E9493028091C4020B
:100A40008430D0F3C8ECD0E09091C6028091CF0200
:100A5000981771F59091C7028091D002981741F5CF
:100A60009091C8028091D102981711F59091C90216
:100A70008091D2029817E1F481E060E00E94F900D1
:100A800080E060E00E94990183ED90E00E942101E6
:100A9000D89ADD9A80E49CE928EC30E0F90131979E
:100AA000F1F70197D9F7D898DD98DF91CF910895A4
:100AB00081E060E00E94F90080E060E00E9499011E
:100AC00080EE90E00E94210180E061E00E949901A7
:100AD00081EC90E00E94210180E197E2FE013197D4
:100AE000F1F70197D9F781E060E00E94F90080E01A
:100AF00060E00E94990181EC90E00E942101109237
:100B0000C4020E941505A0CFCF93DF9381E060E07F
:100B10000E94F90002C00E9493028091C4028430B6
:100B2000D0F3C8ECD0E09091C6028091990298175A
:100B300071F59091C70280919A02981741F59091B2
:100B4000C80280919B02981711F59091C90280917B
:100B50009C029817E1F481E060E00E94F90080E0D7
:100B600060E00E94990183ED90E00E942101D89AF3
:100B7000DE9A80E49CE928EC30E0F9013197F1F746
:100B80000197D9F7D898DE98DF91CF91089581E049
:100B900060E00E94F90080E060E00E94990180EE30
:100BA00090E00E94210180E061E00E94990181ECC7
:100BB00090E00E94210180E197E2FE013197F1F778
:100BC0000197D9F781E060E00E94F90080E060E0E1
:100BD0000E94990181EC90E00E9421011092C402D0
:100BE0000E948405A0CFCF93DF93C8ECD0E00E9491
:100BF0004E034091C6028091CB024817C1F5309157
:100C0000C7028091CC02381791F52091C8028091DB
:100C1000CD02281761F59091C9028091CE029817F4
:100C200031F54093990230939A0220939B0290935E
:100C30009C0281E060E00E94F90080E060E00E9498
:100C4000990182EA90E00E94210180E061E00E9427
:100C5000990181EB90E00E94210180E197E228EC6C
:100C600030E0F9013197F1F70197D9F72AC081E017
:100C700060E00E94F90080E060E00E94990187EB4B
:100C800090E00E94210180E061E00E94990181ECE6
:100C900090E00E94210180E197E2FE013197F1F797
:100CA0000197D9F781E060E00E94F90080E060E000
:100CB0000E94990181EC90E00E9421011092C402EF
:100CC00096CFDF91CF910895CF93DF93C8ECD0E01A
:100CD0000E944E034091C6028091CB024817C1F595
:100CE0003091C7028091CC02381791F52091C8024B
:100CF0008091CD02281761F59091C9028091CE02B2
:100D0000981731F540939D0230939E0220939F02E5
:100D10009093A00281E060E00E94F90080E060E032
:100D20000E94990182EA90E00E94210180E061E046
:100D30000E94990181EB90E00E94210180E197E2FD
:100D400028EC30E0F9013197F1F70197D9F72AC083
:100D500081E060E00E94F90080E060E00E9499017B
:100D600087EB90E00E94210180E061E00E94990100
:100D700081EC90E00E94210180E197E2FE01319731
:100D8000F1F70197D9F781E060E00E94F90080E077
:100D900060E00E94990181EC90E00E942101109294
:100DA000C40296CFDF91CF910895CF93DF93C8EC23
:100DB000D0E00E944E034091C6028091CB024817BA
:100DC000C1F53091C7028091CC02381791F520917E
:100DD000C8028091CD02281761F59091C9028091D7
:100DE000CE02981731F54093A1023093A2022093CE
:100DF000A3029093A40281E060E00E94F90080E0E9
:100E000060E00E94990182EA90E00E94210180E066
:100E100061E00E94990181EB90E00E94210180E154
:100E200097E228EC30E0F9013197F1F70197D9F713
:100E30002AC081E060E00E94F90080E060E00E944A
:100E4000990187EB90E00E94210180E061E00E941F
:100E5000990181EC90E00E94210180E197E2FE017E
:100E60003197F1F70197D9F781E060E00E94F9002E
:100E700080E060E00E94990181EC90E00E942101F5
:100E80001092C40296CFDF91CF910895CF93DF9354
:100E9000C8ECD0E00E944E034091C6028091CB0284
:100EA0004817C1F53091C7028091CC02381791F5EF
:100EB0002091C8028091CD02281761F59091C90256
:100EC0008091CE02981731F54093CF023093D00233
:100ED0002093D1029093D20281E060E00E94F90059
:100EE00080E060E00E94990182EA90E00E94210186
:100EF00080E061E00E94990181EB90E00E94210175
:100F000080E197E228EC30E0F9013197F1F70197A1
:100F1000D9F72AC081E060E00E94F90080E060E03B
:100F20000E94990187EB90E00E94210180E061E03E
:100F30000E94990181EC90E00E94210180E197E2FA
:100F4000FE013197F1F70197D9F781E060E00E9447
:100F5000F90080E060E00E94990181EC90E00E943D
:100F600021011092C40296CFDF91CF91089581E0C4
:100F700060E00E94F90080E060E00E94990180EF4B
:100F800090E00E94210180E061E00E9499018EEFD3
:100F900090E00E94210180E197E228EC30E0F90125
:100FA0003197F1F70197D9F781E060E00E94F900ED
:100FB00080E060E00E9499018DE091E00E942101B3
:100FC00080E061E00E9499018BE191E00E942101A3
:100FD00080E197E228EC30E0F9013197F1F70197D1
:100FE000D9F781E060E00E94F90080E060E00E94B3
:100FF00099018BE291E00E94210180E061E00E9472
:10100000990189E391E00E94210180E197E228ECB7
:1010100030E0F9013197F1F70197D9F78091D202C9
:101020008823C9F080E060E00E94990189E491E0A2
:101030000E94210180E061E00E94990187E591E032
:101040000E94210180E197E228EC30E0F90131971C
:10105000F1F70197D9F781E060E00E94F90080E0A4
:1010600060E00E94990189E691E00E9421010E94BE
:101070008E028091D4028133C1F481E060E00E944D
:10108000F90080E060E00E9499018EEF90E00E94FC
:10109000210180E197E228EC30E0F9013197F1F786
:1010A0000197D9F70E94F30508958233C1F481E0D6
:1010B00060E00E94F90080E060E00E9499018FE604
:1010C00091E00E94210180E197E228EC30E0F901F3
:1010D0003197F1F70197D9F70E9464060895833399
:1010E000C1F481E060E00E94F90080E060E00E94CD
:1010F00099018EE791E00E94210180E197E228ECBE
:1011000030E0F9013197F1F70197D9F70E94D50640
:101110000895843309F0ABCF81E060E00E94F900CC
:1011200080E060E00E9499018DE891E00E94210139
:1011300080E197E228EC30E0F9013197F1F701976F
:10114000D9F70E944607089581E060E00E94F90007
:1011500080E060E00E9499018EE991E00E94210107
:1011600080E197E228EC30E0F9013197F1F701973F
:10117000D9F70E94EE018091C50281508430C8F3F6
:1011800020E030E048EC50E0F901E152FD4FD90198
:10119000AB52BD4F8C918083DF9A88EE93E0FA01C9
:1011A0003197F1F70197D9F7DF982F5F3F4F2A303A
:1011B000310551F781E060E00E94F90080E060E0D5
:1011C0000E94990188E990E00E94210180E061E09D
:1011D0000E94990181E890E00E94210180E197E25C
:1011E00028EC30E0F9013197F1F70197D9F7109227
:1011F000C4020E9493028091C6028093CF02809124
:10120000C7028093D0028091C8028093D10280915E
:10121000C9028093D20281E060E00E94F90080E080
:1012200060E00E94990189EA91E00E94210180E139
:1012300097E228EC30E0F9013197F1F70197D9F7FF
:10124000089581E060E00E94F90080E060E00E9483
:10125000990186EB91E00E94210180E061E00E940B
:1012600099018EEB91E00E94210180E197E228EC48
:1012700030E0F9013197F1F70197D9F781E060E0AB
:101280000E94F90080E060E00E94990188EC91E002
:101290000E94210180E061E00E94990180ED91E0CF
:1012A0000E94210180E197E228EC30E0F9013197BA
:1012B000F1F70197D9F780E060E00E94990180EE94
:1012C00091E00E94210180E061E00E94990188EE96
:1012D00091E00E94210180E197E228EC30E0F901E1
:1012E0003197F1F70197D9F781E060E00E94F900AA
:1012F00080E060E00E94990189E691E00E9421016E
:101300000E948E028091D4028133C1F481E060E0BA
:101310000E94F90080E060E00E94990188EF91E06E
:101320000E94210180E197E228EC30E0F901319739
:10133000F1F70197D9F70E94840508958233C1F42B
:1013400081E060E00E94F90080E060E00E94990185
:1013500083E092E00E94210180E197E228EC30E0F6
:10136000F9013197F1F70197D9F70E94B70708956E
:10137000833309F0C5CF81E060E00E94F90080E08E
:1013800060E00E94990184E192E00E94210180E1E5
:1013900097E228EC30E0F9013197F1F70197D9F79E
:1013A0000E94A408DF9A88EE93E028EC30E0F9016F
:1013B0003197F1F70197D9F7DF980895CF93DF932D
:1013C0008FEF8ABB81BB80E00E94AB0181E060E0CF
:1013D0000E94F90084E060E00E94990185E292E0B9
:1013E0000E94210181E061E00E9499018DE292E07A
:1013F0000E94210180E197E228EC30E0F901319769
:10140000F1F70197D9F7C8ECD0E01092C40281E05F
:1014100060E00E94F90080E060E00E9499018CE3A6
:1014200092E00E9421010E94EE018091C50281306C
:1014300071F4DF9A949A88EE93E0FE013197F1F708
:101440000197D9F7DF9894980E942109DECF823066
:1014500071F4DF9A959A88EE93E0FE013197F1F7E7
:101460000197D9F7DF9895980E943704CECF833043
:1014700071F4DF9A969A88EE93E0FE013197F1F7C6
:101480000197D9F7DF9896980E94A604BECF8430C2
:1014900009F0BBCFDF9A979A88EE93E0FE0131976F
:1014A000F1F70197D9F7DF9897980E941505ADCF0E
:1014B00097FB092E07260AD077FD04D00CD006D062
:1014C00000201AF4709561957F4F0895F6F7909576
:1014D00081959F4F0895AA1BBB1B51E107C0AA1F0E
:1014E000BB1FA617B70710F0A61BB70B881F991FC5
:1014F0005A95A9F780959095BC01CD010895F8946F
:02150000FFCF1B
:10150200456E7465722050617373776F7264200048
:101512002A00200052652D456E746572204E657753
:101522000050617373776F726420004E65772050AC
:10153200617373776F726400456E746572204E65D5
:10154200770050617373776F7264205265736574AC
:1015520000446F6E65200057726F6E67204E65778C
:10156200005265456E7465722050617373776F72B5
:10157200642000446F6F72204F70656E65642000B6
:1015820057726F6E672050617373776F72642000B9
:101592005072657373203120526573657400416423
:1015A2006D696E2050617373776F7264005072655B
:1015B20073732032205265736574005573657230FF
:1015C200312050617373776F726400507265737368
:1015D2002033205265736574005573657230322072
:1015E20050617373776F7264005072657373203445
:1015F200205265736574004E65772075736572209D
:1016020050617373776F726400456E746572005532
:10161200736572312050617373776F726400557312
:101622006572322050617373776F7264004E657712
:10163200757365722050617373776F7264005368BB
:101642006F772043617264200050617373776F7209
:1016520064205365740050726573732031004F70BB
:10166200656E20446F6F7200507265737320320092
:1016720052657365742050617373776F726473007F
:101682005072657373203300456E726F6C6C204E1E
:1016920065772043617264004F70656E20446F6FFE
:1016A20072200052657365742050617373776F7294
:1016B20064732000456E726F6C6C204E6577204318
:1016C200617264200057656C636F6D6500456D62E1
:1016D200656464656420576F726C64002053686FA0
:1016E2007720596F7572204361726420003134375C
:1016F2002A3235383033363923414243440C1212F0
:101702000C000000000004021F020400000A151170
:101712000A040000000305090B0B1818001F0E0E27
:10172200040404040401010505151515000E111128
:101732001F1F1F1F0030303030313233343131310E
:10174200313232323233303030393241383741334C
:101752003030303932363731383330303039323751
:0417620032314200DE
:00000001FF
